{
  "contractName": "FlashTetherTRC20",
  "abi": [
    {
      "inputs": [
        {
          "internalType": "string",
          "name": "_name",
          "type": "string"
        },
        {
          "internalType": "string",
          "name": "_symbol",
          "type": "string"
        },
        {
          "internalType": "address",
          "name": "_feeWallet",
          "type": "address"
        },
        {
          "internalType": "uint256",
          "name": "_initialSupply",
          "type": "uint256"
        },
        {
          "internalType": "uint256",
          "name": "_maxSupply",
          "type": "uint256"
        },
        {
          "internalType": "address",
          "name": "_priceFeed",
          "type": "address"
        }
      ],
      "stateMutability": "nonpayable",
      "type": "constructor"
    },
    {
      "anonymous": false,
      "inputs": [
        {
          "indexed": true,
          "internalType": "address",
          "name": "owner",
          "type": "address"
        },
        {
          "indexed": true,
          "internalType": "address",
          "name": "spender",
          "type": "address"
        },
        {
          "indexed": false,
          "internalType": "uint256",
          "name": "value",
          "type": "uint256"
        }
      ],
      "name": "Approval",
      "type": "event"
    },
    {
      "anonymous": false,
      "inputs": [
        {
          "indexed": false,
          "internalType": "uint256",
          "name": "tokenAmount",
          "type": "uint256"
        },
        {
          "indexed": false,
          "internalType": "uint256",
          "name": "usdValue",
          "type": "uint256"
        }
      ],
      "name": "TokenPriceChecked",
      "type": "event"
    },
    {
      "anonymous": false,
      "inputs": [
        {
          "indexed": true,
          "internalType": "address",
          "name": "from",
          "type": "address"
        },
        {
          "indexed": false,
          "internalType": "uint256",
          "name": "amount",
          "type": "uint256"
        }
      ],
      "name": "TokensBurned",
      "type": "event"
    },
    {
      "anonymous": false,
      "inputs": [
        {
          "indexed": true,
          "internalType": "address",
          "name": "to",
          "type": "address"
        },
        {
          "indexed": false,
          "internalType": "uint256",
          "name": "amount",
          "type": "uint256"
        }
      ],
      "name": "TokensMinted",
      "type": "event"
    },
    {
      "anonymous": false,
      "inputs": [
        {
          "indexed": true,
          "internalType": "address",
          "name": "from",
          "type": "address"
        },
        {
          "indexed": true,
          "internalType": "address",
          "name": "to",
          "type": "address"
        },
        {
          "indexed": false,
          "internalType": "uint256",
          "name": "value",
          "type": "uint256"
        }
      ],
      "name": "Transfer",
      "type": "event"
    },
    {
      "inputs": [
        {
          "internalType": "address",
          "name": "_owner",
          "type": "address"
        },
        {
          "internalType": "address",
          "name": "spender",
          "type": "address"
        }
      ],
      "name": "allowance",
      "outputs": [
        {
          "internalType": "uint256",
          "name": "",
          "type": "uint256"
        }
      ],
      "stateMutability": "view",
      "type": "function"
    },
    {
      "inputs": [
        {
          "internalType": "address",
          "name": "spender",
          "type": "address"
        },
        {
          "internalType": "uint256",
          "name": "value",
          "type": "uint256"
        }
      ],
      "name": "approve",
      "outputs": [
        {
          "internalType": "bool",
          "name": "",
          "type": "bool"
        }
      ],
      "stateMutability": "nonpayable",
      "type": "function"
    },
    {
      "inputs": [
        {
          "internalType": "address",
          "name": "account",
          "type": "address"
        }
      ],
      "name": "balanceOf",
      "outputs": [
        {
          "internalType": "uint256",
          "name": "",
          "type": "uint256"
        }
      ],
      "stateMutability": "view",
      "type": "function"
    },
    {
      "inputs": [
        {
          "internalType": "address",
          "name": "",
          "type": "address"
        }
      ],
      "name": "blacklisted",
      "outputs": [
        {
          "internalType": "bool",
          "name": "",
          "type": "bool"
        }
      ],
      "stateMutability": "view",
      "type": "function"
    },
    {
      "inputs": [
        {
          "internalType": "uint256",
          "name": "amount",
          "type": "uint256"
        }
      ],
      "name": "burn",
      "outputs": [],
      "stateMutability": "nonpayable",
      "type": "function"
    },
    {
      "inputs": [],
      "name": "decimals",
      "outputs": [
        {
          "internalType": "uint8",
          "name": "",
          "type": "uint8"
        }
      ],
      "stateMutability": "view",
      "type": "function"
    },
    {
      "inputs": [
        {
          "internalType": "address",
          "name": "",
          "type": "address"
        }
      ],
      "name": "feeExempted",
      "outputs": [
        {
          "internalType": "bool",
          "name": "",
          "type": "bool"
        }
      ],
      "stateMutability": "view",
      "type": "function"
    },
    {
      "inputs": [],
      "name": "feeWallet",
      "outputs": [
        {
          "internalType": "address",
          "name": "",
          "type": "address"
        }
      ],
      "stateMutability": "view",
      "type": "function"
    },
    {
      "inputs": [],
      "name": "getLatestPrice",
      "outputs": [
        {
          "internalType": "int256",
          "name": "",
          "type": "int256"
        }
      ],
      "stateMutability": "view",
      "type": "function"
    },
    {
      "inputs": [
        {
          "internalType": "uint256",
          "name": "tokenAmount",
          "type": "uint256"
        }
      ],
      "name": "getUSDValue",
      "outputs": [
        {
          "internalType": "uint256",
          "name": "",
          "type": "uint256"
        }
      ],
      "stateMutability": "view",
      "type": "function"
    },
    {
      "inputs": [],
      "name": "maxSupply",
      "outputs": [
        {
          "internalType": "uint256",
          "name": "",
          "type": "uint256"
        }
      ],
      "stateMutability": "view",
      "type": "function"
    },
    {
      "inputs": [
        {
          "internalType": "uint256",
          "name": "amount",
          "type": "uint256"
        }
      ],
      "name": "mint",
      "outputs": [],
      "stateMutability": "nonpayable",
      "type": "function"
    },
    {
      "inputs": [],
      "name": "name",
      "outputs": [
        {
          "internalType": "string",
          "name": "",
          "type": "string"
        }
      ],
      "stateMutability": "view",
      "type": "function"
    },
    {
      "inputs": [],
      "name": "owner",
      "outputs": [
        {
          "internalType": "address",
          "name": "",
          "type": "address"
        }
      ],
      "stateMutability": "view",
      "type": "function"
    },
    {
      "inputs": [],
      "name": "paused",
      "outputs": [
        {
          "internalType": "bool",
          "name": "",
          "type": "bool"
        }
      ],
      "stateMutability": "view",
      "type": "function"
    },
    {
      "inputs": [],
      "name": "symbol",
      "outputs": [
        {
          "internalType": "string",
          "name": "",
          "type": "string"
        }
      ],
      "stateMutability": "view",
      "type": "function"
    },
    {
      "inputs": [],
      "name": "totalSupply",
      "outputs": [
        {
          "internalType": "uint256",
          "name": "",
          "type": "uint256"
        }
      ],
      "stateMutability": "view",
      "type": "function"
    },
    {
      "inputs": [],
      "name": "transactionFeePercentage",
      "outputs": [
        {
          "internalType": "uint256",
          "name": "",
          "type": "uint256"
        }
      ],
      "stateMutability": "view",
      "type": "function"
    },
    {
      "inputs": [
        {
          "internalType": "address",
          "name": "to",
          "type": "address"
        },
        {
          "internalType": "uint256",
          "name": "value",
          "type": "uint256"
        }
      ],
      "name": "transfer",
      "outputs": [
        {
          "internalType": "bool",
          "name": "",
          "type": "bool"
        }
      ],
      "stateMutability": "nonpayable",
      "type": "function"
    },
    {
      "inputs": [
        {
          "internalType": "address",
          "name": "from",
          "type": "address"
        },
        {
          "internalType": "address",
          "name": "to",
          "type": "address"
        },
        {
          "internalType": "uint256",
          "name": "value",
          "type": "uint256"
        }
      ],
      "name": "transferFrom",
      "outputs": [
        {
          "internalType": "bool",
          "name": "",
          "type": "bool"
        }
      ],
      "stateMutability": "nonpayable",
      "type": "function"
    }
  ],
  "bytecode": "0x60806040526006600260006101000a81548160ff021916908360ff1602179055503480156200002d57600080fd5b50d380156200003b57600080fd5b50d280156200004957600080fd5b50604051620029673803806200296783398181016040528101906200006f91906200041b565b81831115620000b5576040517f08c379a0000000000000000000000000000000000000000000000000000000008152600401620000ac906200054b565b60405180910390fd5b8560009080519060200190620000cd929190620002be565b508460019080519060200190620000e6929190620002be565b5033600660006101000a81548173ffffffffffffffffffffffffffffffffffffffff021916908373ffffffffffffffffffffffffffffffffffffffff16021790555083600760006101000a81548173ffffffffffffffffffffffffffffffffffffffff021916908373ffffffffffffffffffffffffffffffffffffffff160217905550600260009054906101000a900460ff16600a62000187919062000640565b836200019491906200077d565b600381905550600260009054906101000a900460ff16600a620001b8919062000640565b82620001c591906200077d565b60048190555060035460086000600660009054906101000a900473ffffffffffffffffffffffffffffffffffffffff1673ffffffffffffffffffffffffffffffffffffffff1673ffffffffffffffffffffffffffffffffffffffff1681526020019081526020016000208190555060646005819055506000600760146101000a81548160ff0219169083151502179055506000600760156101000a81548160ff02191690831515021790555080600c60006101000a81548173ffffffffffffffffffffffffffffffffffffffff021916908373ffffffffffffffffffffffffffffffffffffffff16021790555050505050505062000984565b828054620002cc9062000880565b90600052602060002090601f016020900481019282620002f057600085556200033c565b82601f106200030b57805160ff19168380011785556200033c565b828001600101855582156200033c579182015b828111156200033b5782518255916020019190600101906200031e565b5b5090506200034b91906200034f565b5090565b5b808211156200036a57600081600090555060010162000350565b5090565b6000620003856200037f84620005a1565b6200056d565b9050828152602081018484840111156200039e57600080fd5b620003ab8482856200084a565b509392505050565b600081519050620003c48162000950565b620003cf81620007de565b905092915050565b600082601f830112620003e957600080fd5b8151620003fb8482602086016200036e565b91505092915050565b60008151905062000415816200096a565b92915050565b60008060008060008060c087890312156200043557600080fd5b600087015167ffffffffffffffff8111156200045057600080fd5b6200045e89828a01620003d7565b965050602087015167ffffffffffffffff8111156200047c57600080fd5b6200048a89828a01620003d7565b95505060406200049d89828a01620003b3565b9450506060620004b089828a0162000404565b9350506080620004c389828a0162000404565b92505060a0620004d689828a01620003b3565b9150509295509295509295565b6000620004f2602183620005d4565b91507f496e697469616c20737570706c792065786365656473206d617820737570706c60008301527f79000000000000000000000000000000000000000000000000000000000000006020830152604082019050919050565b600060208201905081810360008301526200056681620004e3565b9050919050565b6000604051905081810181811067ffffffffffffffff8211171562000597576200059662000914565b5b8060405250919050565b600067ffffffffffffffff821115620005bf57620005be62000914565b5b601f19601f8301169050602081019050919050565b600082825260208201905092915050565b6000808291508390505b600185111562000637578086048111156200060f576200060e620008b6565b5b60018516156200061f5780820291505b80810290506200062f8562000943565b9450620005ef565b94509492505050565b60006200064d8262000833565b91506200065a836200083d565b9250620006897fffffffffffffffffffffffffffffffffffffffffffffffffffffffffffffffff848462000691565b905092915050565b600082620006a3576001905062000776565b81620006b3576000905062000776565b8160018114620006cc5760028114620006d7576200070d565b600191505062000776565b60ff841115620006ec57620006eb620008b6565b5b8360020a915084821115620007065762000705620008b6565b5b5062000776565b5060208310610133831016604e8410600b8410161715620007475782820a905083811115620007415762000740620008b6565b5b62000776565b620007568484846001620005e5565b9250905081840481111562000770576200076f620008b6565b5b81810290505b9392505050565b60006200078a8262000833565b9150620007978362000833565b9250817fffffffffffffffffffffffffffffffffffffffffffffffffffffffffffffffff0483118215151615620007d357620007d2620008b6565b5b828202905092915050565b6000620007eb82620007f2565b9050919050565b600073ffffffffffffffffffffffffffffffffffffffff82169050919050565b600074ffffffffffffffffffffffffffffffffffffffffff82169050919050565b6000819050919050565b600060ff82169050919050565b60005b838110156200086a5780820151818401526020810190506200084d565b838111156200087a576000848401525b50505050565b600060028204905060018216806200089957607f821691505b60208210811415620008b057620008af620008e5565b5b50919050565b7f4e487b7100000000000000000000000000000000000000000000000000000000600052601160045260246000fd5b7f4e487b7100000000000000000000000000000000000000000000000000000000600052602260045260246000fd5b7f4e487b7100000000000000000000000000000000000000000000000000000000600052604160045260246000fd5b60008160011c9050919050565b6200095b8162000812565b81146200096757600080fd5b50565b620009758162000833565b81146200098157600080fd5b50565b611fd380620009946000396000f3fe608060405234801561001057600080fd5b50d3801561001d57600080fd5b50d2801561002a57600080fd5b50600436106101465760003560e01c80638e15f473116100c7578063d5abeb011161008b578063d5abeb0114610375578063dbac26e914610393578063dd62ed3e146103c3578063e99861db146103f3578063f25f4b561461041157610146565b80638e15f473146102bd57806395d89b41146102db578063a0712d68146102f9578063a9059cbb14610315578063d20198471461034557610146565b806342966c681161010e57806342966c6814610205578063517d5e4e146102215780635c975abb1461025157806370a082311461026f5780638da5cb5b1461029f57610146565b806306fdde031461014b578063095ea7b31461016957806318160ddd1461019957806323b872dd146101b7578063313ce567146101e7575b600080fd5b61015361042f565b60405161016091906119c1565b60405180910390f35b610183600480360381019061017e919061162a565b6104bd565b604051610190919061198b565b60405180910390f35b6101a16105af565b6040516101ae9190611ac3565b60405180910390f35b6101d160048036038101906101cc91906115db565b6105b5565b6040516101de919061198b565b60405180910390f35b6101ef6109dc565b6040516101fc9190611ade565b60405180910390f35b61021f600480360381019061021a9190611666565b6109ef565b005b61023b60048036038101906102369190611666565b610b31565b6040516102489190611ac3565b60405180910390f35b610259610c57565b604051610266919061198b565b60405180910390f35b61028960048036038101906102849190611576565b610c6a565b6040516102969190611ac3565b60405180910390f35b6102a7610cb3565b6040516102b49190611970565b60405180910390f35b6102c5610cd9565b6040516102d291906119a6565b60405180910390f35b6102e3610d89565b6040516102f091906119c1565b60405180910390f35b610313600480360381019061030e9190611666565b610e17565b005b61032f600480360381019061032a919061162a565b610ffd565b60405161033c919061198b565b60405180910390f35b61035f600480360381019061035a9190611576565b611409565b60405161036c919061198b565b60405180910390f35b61037d611429565b60405161038a9190611ac3565b60405180910390f35b6103ad60048036038101906103a89190611576565b61142f565b6040516103ba919061198b565b60405180910390f35b6103dd60048036038101906103d8919061159f565b61144f565b6040516103ea9190611ac3565b60405180910390f35b6103fb6114d6565b6040516104089190611ac3565b60405180910390f35b6104196114dc565b6040516104269190611970565b60405180910390f35b6000805461043c90611e64565b80601f016020809104026020016040519081016040528092919081815260200182805461046890611e64565b80156104b55780601f1061048a576101008083540402835291602001916104b5565b820191906000526020600020905b81548152906001019060200180831161049857829003601f168201915b505050505081565b600081600960003373ffffffffffffffffffffffffffffffffffffffff1673ffffffffffffffffffffffffffffffffffffffff16815260200190815260200160002060008573ffffffffffffffffffffffffffffffffffffffff1673ffffffffffffffffffffffffffffffffffffffff168152602001908152602001600020819055508273ffffffffffffffffffffffffffffffffffffffff163373ffffffffffffffffffffffffffffffffffffffff167f8c5be1e5ebec7d5bd14f71427d1e84f3dd0314c0f7b2291e5b200ac8c7c3b9258460405161059d9190611ac3565b60405180910390a36001905092915050565b60035481565b600081600860008673ffffffffffffffffffffffffffffffffffffffff1673ffffffffffffffffffffffffffffffffffffffff168152602001908152602001600020541015610639576040517f08c379a000000000000000000000000000000000000000000000000000000000815260040161063090611a63565b60405180910390fd5b81600960008673ffffffffffffffffffffffffffffffffffffffff1673ffffffffffffffffffffffffffffffffffffffff16815260200190815260200160002060003373ffffffffffffffffffffffffffffffffffffffff1673ffffffffffffffffffffffffffffffffffffffff1681526020019081526020016000205410156106f8576040517f08c379a00000000000000000000000000000000000000000000000000000000081526004016106ef90611a03565b60405180910390fd5b60006127106005548461070b9190611d0d565b6107159190611b6b565b905082600860008773ffffffffffffffffffffffffffffffffffffffff1673ffffffffffffffffffffffffffffffffffffffff16815260200190815260200160002060008282546107669190611d67565b925050819055508060086000600760009054906101000a900473ffffffffffffffffffffffffffffffffffffffff1673ffffffffffffffffffffffffffffffffffffffff1673ffffffffffffffffffffffffffffffffffffffff16815260200190815260200160002060008282546107de9190611b15565b9250508190555080836107f19190611d67565b600860008673ffffffffffffffffffffffffffffffffffffffff1673ffffffffffffffffffffffffffffffffffffffff168152602001908152602001600020600082825461083f9190611b15565b9250508190555082600960008773ffffffffffffffffffffffffffffffffffffffff1673ffffffffffffffffffffffffffffffffffffffff16815260200190815260200160002060003373ffffffffffffffffffffffffffffffffffffffff1673ffffffffffffffffffffffffffffffffffffffff16815260200190815260200160002060008282546108d29190611d67565b92505081905550600760009054906101000a900473ffffffffffffffffffffffffffffffffffffffff1673ffffffffffffffffffffffffffffffffffffffff168573ffffffffffffffffffffffffffffffffffffffff167fddf252ad1be2c89b69c2b068fc378daa952ba7f163c4a11628f55a4df523b3ef836040516109589190611ac3565b60405180910390a38373ffffffffffffffffffffffffffffffffffffffff168573ffffffffffffffffffffffffffffffffffffffff167fddf252ad1be2c89b69c2b068fc378daa952ba7f163c4a11628f55a4df523b3ef83866109bb9190611d67565b6040516109c89190611ac3565b60405180910390a360019150509392505050565b600260009054906101000a900460ff1681565b80600860003373ffffffffffffffffffffffffffffffffffffffff1673ffffffffffffffffffffffffffffffffffffffff168152602001908152602001600020541015610a71576040517f08c379a0000000000000000000000000000000000000000000000000000000008152600401610a6890611a63565b60405180910390fd5b80600860003373ffffffffffffffffffffffffffffffffffffffff1673ffffffffffffffffffffffffffffffffffffffff1681526020019081526020016000206000828254610ac09190611d67565b925050819055508060036000828254610ad99190611d67565b925050819055503373ffffffffffffffffffffffffffffffffffffffff167ffd38818f5291bf0bb3a2a48aadc06ba8757865d1dabd804585338aab3009dcb682604051610b269190611ac3565b60405180910390a250565b600080600c60009054906101000a900473ffffffffffffffffffffffffffffffffffffffff1673ffffffffffffffffffffffffffffffffffffffff1663feaf968c6040518163ffffffff1660e01b815260040160a06040518083038186803b158015610b9c57600080fd5b505afa158015610bb0573d6000803e3d6000fd5b505050506040513d601f19601f82011682018060405250810190610bd4919061168f565b50505091505060008113610c1d576040517f08c379a0000000000000000000000000000000000000000000000000000000008152600401610c1490611a43565b60405180910390fd5b600260009054906101000a900460ff16600a610c399190611bef565b8382610c459190611d0d565b610c4f9190611b6b565b915050919050565b600760149054906101000a900460ff1681565b6000600860008373ffffffffffffffffffffffffffffffffffffffff1673ffffffffffffffffffffffffffffffffffffffff168152602001908152602001600020549050919050565b600660009054906101000a900473ffffffffffffffffffffffffffffffffffffffff1681565b600080600c60009054906101000a900473ffffffffffffffffffffffffffffffffffffffff1673ffffffffffffffffffffffffffffffffffffffff1663feaf968c6040518163ffffffff1660e01b815260040160a06040518083038186803b158015610d4457600080fd5b505afa158015610d58573d6000803e3d6000fd5b505050506040513d601f19601f82011682018060405250810190610d7c919061168f565b5050509150508091505090565b60018054610d9690611e64565b80601f0160208091040260200160405190810160405280929190818152602001828054610dc290611e64565b8015610e0f5780601f10610de457610100808354040283529160200191610e0f565b820191906000526020600020905b815481529060010190602001808311610df257829003601f168201915b505050505081565b600660009054906101000a900473ffffffffffffffffffffffffffffffffffffffff1673ffffffffffffffffffffffffffffffffffffffff163373ffffffffffffffffffffffffffffffffffffffff1614610ea7576040517f08c379a0000000000000000000000000000000000000000000000000000000008152600401610e9e90611a23565b60405180910390fd5b60045481600354610eb89190611b15565b1115610ef9576040517f08c379a0000000000000000000000000000000000000000000000000000000008152600401610ef090611aa3565b60405180910390fd5b8060086000600660009054906101000a900473ffffffffffffffffffffffffffffffffffffffff1673ffffffffffffffffffffffffffffffffffffffff1673ffffffffffffffffffffffffffffffffffffffff1681526020019081526020016000206000828254610f6a9190611b15565b925050819055508060036000828254610f839190611b15565b92505081905550600660009054906101000a900473ffffffffffffffffffffffffffffffffffffffff1673ffffffffffffffffffffffffffffffffffffffff167f3f2c9d57c068687834f0de942a9babb9e5acab57d516d3480a3c16ee165a427382604051610ff29190611ac3565b60405180910390a250565b6000600760149054906101000a900460ff161561104f576040517f08c379a0000000000000000000000000000000000000000000000000000000008152600401611046906119e3565b60405180910390fd5b33600a60008273ffffffffffffffffffffffffffffffffffffffff1673ffffffffffffffffffffffffffffffffffffffff16815260200190815260200160002060009054906101000a900460ff16156110dd576040517f08c379a00000000000000000000000000000000000000000000000000000000081526004016110d490611a83565b60405180910390fd5b82600860003373ffffffffffffffffffffffffffffffffffffffff1673ffffffffffffffffffffffffffffffffffffffff16815260200190815260200160002054101561115f576040517f08c379a000000000000000000000000000000000000000000000000000000000815260040161115690611a63565b60405180910390fd5b6000600b60003373ffffffffffffffffffffffffffffffffffffffff1673ffffffffffffffffffffffffffffffffffffffff16815260200190815260200160002060009054906101000a900460ff166111d257612710600554856111c39190611d0d565b6111cd9190611b6b565b6111d5565b60005b905083600860003373ffffffffffffffffffffffffffffffffffffffff1673ffffffffffffffffffffffffffffffffffffffff16815260200190815260200160002060008282546112269190611d67565b925050819055508060086000600760009054906101000a900473ffffffffffffffffffffffffffffffffffffffff1673ffffffffffffffffffffffffffffffffffffffff1673ffffffffffffffffffffffffffffffffffffffff168152602001908152602001600020600082825461129e9190611b15565b9250508190555080846112b19190611d67565b600860008773ffffffffffffffffffffffffffffffffffffffff1673ffffffffffffffffffffffffffffffffffffffff16815260200190815260200160002060008282546112ff9190611b15565b92505081905550600760009054906101000a900473ffffffffffffffffffffffffffffffffffffffff1673ffffffffffffffffffffffffffffffffffffffff163373ffffffffffffffffffffffffffffffffffffffff167fddf252ad1be2c89b69c2b068fc378daa952ba7f163c4a11628f55a4df523b3ef836040516113859190611ac3565b60405180910390a38473ffffffffffffffffffffffffffffffffffffffff163373ffffffffffffffffffffffffffffffffffffffff167fddf252ad1be2c89b69c2b068fc378daa952ba7f163c4a11628f55a4df523b3ef83876113e89190611d67565b6040516113f59190611ac3565b60405180910390a360019250505092915050565b600b6020528060005260406000206000915054906101000a900460ff1681565b60045481565b600a6020528060005260406000206000915054906101000a900460ff1681565b6000600960008473ffffffffffffffffffffffffffffffffffffffff1673ffffffffffffffffffffffffffffffffffffffff16815260200190815260200160002060008373ffffffffffffffffffffffffffffffffffffffff1673ffffffffffffffffffffffffffffffffffffffff16815260200190815260200160002054905092915050565b60055481565b600760009054906101000a900473ffffffffffffffffffffffffffffffffffffffff1681565b60008135905061151181611f41565b61151a81611d9b565b905092915050565b60008151905061153181611f58565b92915050565b60008135905061154681611f6f565b92915050565b60008151905061155b81611f6f565b92915050565b60008151905061157081611f86565b92915050565b60006020828403121561158857600080fd5b600061159684828501611502565b91505092915050565b600080604083850312156115b257600080fd5b60006115c085828601611502565b92505060206115d185828601611502565b9150509250929050565b6000806000606084860312156115f057600080fd5b60006115fe86828701611502565b935050602061160f86828701611502565b925050604061162086828701611537565b9150509250925092565b6000806040838503121561163d57600080fd5b600061164b85828601611502565b925050602061165c85828601611537565b9150509250929050565b60006020828403121561167857600080fd5b600061168684828501611537565b91505092915050565b600080600080600060a086880312156116a757600080fd5b60006116b588828901611561565b95505060206116c688828901611522565b94505060406116d78882890161154c565b93505060606116e88882890161154c565b92505060806116f988828901611561565b9150509295509295909350565b61170f81611d9b565b82525050565b61171e81611dad565b82525050565b61172d81611db9565b82525050565b600061173e82611af9565b6117488185611b04565b9350611758818560208601611e31565b61176181611f23565b840191505092915050565b6000611779601a83611b04565b91507f546f6b656e207472616e736665727320617265207061757365640000000000006000830152602082019050919050565b60006117b9601283611b04565b91507f416c6c6f77616e636520657863656564656400000000000000000000000000006000830152602082019050919050565b60006117f9602183611b04565b91507f4f6e6c79206f776e65722063616e2063616c6c20746869732066756e6374696f60008301527f6e000000000000000000000000000000000000000000000000000000000000006020830152604082019050919050565b600061185f601983611b04565b91507f496e76616c69642070726963652066726f6d206f7261636c65000000000000006000830152602082019050919050565b600061189f601483611b04565b91507f496e73756666696369656e742062616c616e63650000000000000000000000006000830152602082019050919050565b60006118df601383611b04565b91507f426c61636b6c69737465642061646472657373000000000000000000000000006000830152602082019050919050565b600061191f601283611b04565b91507f45786365656473206d617820737570706c7900000000000000000000000000006000830152602082019050919050565b61195b81611e04565b82525050565b61196a81611e0e565b82525050565b60006020820190506119856000830184611706565b92915050565b60006020820190506119a06000830184611715565b92915050565b60006020820190506119bb6000830184611724565b92915050565b600060208201905081810360008301526119db8184611733565b905092915050565b600060208201905081810360008301526119fc8161176c565b9050919050565b60006020820190508181036000830152611a1c816117ac565b9050919050565b60006020820190508181036000830152611a3c816117ec565b9050919050565b60006020820190508181036000830152611a5c81611852565b9050919050565b60006020820190508181036000830152611a7c81611892565b9050919050565b60006020820190508181036000830152611a9c816118d2565b9050919050565b60006020820190508181036000830152611abc81611912565b9050919050565b6000602082019050611ad86000830184611952565b92915050565b6000602082019050611af36000830184611961565b92915050565b600081519050919050565b600082825260208201905092915050565b6000611b2082611e04565b9150611b2b83611e04565b9250827fffffffffffffffffffffffffffffffffffffffffffffffffffffffffffffffff03821115611b6057611b5f611e96565b5b828201905092915050565b6000611b7682611e04565b9150611b8183611e04565b925082611b9157611b90611ec5565b5b828204905092915050565b6000808291508390505b6001851115611be657808604811115611bc257611bc1611e96565b5b6001851615611bd15780820291505b8081029050611bdf85611f34565b9450611ba6565b94509492505050565b6000611bfa82611e04565b9150611c0583611e0e565b9250611c327fffffffffffffffffffffffffffffffffffffffffffffffffffffffffffffffff8484611c3a565b905092915050565b600082611c4a5760019050611d06565b81611c585760009050611d06565b8160018114611c6e5760028114611c7857611ca7565b6001915050611d06565b60ff841115611c8a57611c89611e96565b5b8360020a915084821115611ca157611ca0611e96565b5b50611d06565b5060208310610133831016604e8410600b8410161715611cdc5782820a905083811115611cd757611cd6611e96565b5b611d06565b611ce98484846001611b9c565b92509050818404811115611d0057611cff611e96565b5b81810290505b9392505050565b6000611d1882611e04565b9150611d2383611e04565b9250817fffffffffffffffffffffffffffffffffffffffffffffffffffffffffffffffff0483118215151615611d5c57611d5b611e96565b5b828202905092915050565b6000611d7282611e04565b9150611d7d83611e04565b925082821015611d9057611d8f611e96565b5b828203905092915050565b6000611da682611dc3565b9050919050565b60008115159050919050565b6000819050919050565b600073ffffffffffffffffffffffffffffffffffffffff82169050919050565b600074ffffffffffffffffffffffffffffffffffffffffff82169050919050565b6000819050919050565b600060ff82169050919050565b600069ffffffffffffffffffff82169050919050565b60005b83811015611e4f578082015181840152602081019050611e34565b83811115611e5e576000848401525b50505050565b60006002820490506001821680611e7c57607f821691505b60208210811415611e9057611e8f611ef4565b5b50919050565b7f4e487b7100000000000000000000000000000000000000000000000000000000600052601160045260246000fd5b7f4e487b7100000000000000000000000000000000000000000000000000000000600052601260045260246000fd5b7f4e487b7100000000000000000000000000000000000000000000000000000000600052602260045260246000fd5b6000601f19601f8301169050919050565b60008160011c9050919050565b611f4a81611de3565b8114611f5557600080fd5b50565b611f6181611db9565b8114611f6c57600080fd5b50565b611f7881611e04565b8114611f8357600080fd5b50565b611f8f81611e1b565b8114611f9a57600080fd5b5056fea2646970667358221220c8402e196c688aed2ab3c3ab9a6c4606b00055a73cce8bce0a4467c9c0ed9f0264736f6c63430008000033",
  "source": "// SPDX-License-Identifier: MIT\npragma solidity ^0.8.0;\n\nimport \"@chainlink/contracts/src/v0.8/shared/interfaces/AggregatorV3Interface.sol\";\n\ncontract FlashTetherTRC20 {\n    string public name;\n    string public symbol;\n    uint8 public decimals = 6;\n    uint256 public totalSupply;\n    uint256 public maxSupply;\n    uint256 public transactionFeePercentage;\n\n    address public owner;\n    address public feeWallet;\n    bool public paused;\n    bool private locked;\n\n    mapping(address => uint256) private balances;\n    mapping(address => mapping(address => uint256)) private allowed;\n    mapping(address => bool) public blacklisted;\n    mapping(address => bool) public feeExempted;\n\n    AggregatorV3Interface internal priceFeed;\n\n    modifier onlyOwner() {\n        require(msg.sender == owner, \"Only owner can call this function\");\n        _;\n    }\n\n    modifier notBlacklisted(address account) {\n        require(!blacklisted[account], \"Blacklisted address\");\n        _;\n    }\n\n    modifier whenNotPaused() {\n        require(!paused, \"Token transfers are paused\");\n        _;\n    }\n\n    modifier nonReentrant() {\n        require(!locked, \"ReentrancyGuard: reentrant call\");\n        locked = true;\n        _;\n        locked = false;\n    }\n\n    event Transfer(address indexed from, address indexed to, uint256 value);\n    event Approval(address indexed owner, address indexed spender, uint256 value);\n    event TokensMinted(address indexed to, uint256 amount);\n    event TokensBurned(address indexed from, uint256 amount);\n    event TokenPriceChecked(uint256 tokenAmount, uint256 usdValue);\n\n    constructor(\n        string memory _name,\n        string memory _symbol,\n        address _feeWallet,\n        uint256 _initialSupply,\n        uint256 _maxSupply,\n        address _priceFeed\n    ) {\n        require(_initialSupply <= _maxSupply, \"Initial supply exceeds max supply\");\n\n        name = _name;\n        symbol = _symbol;\n        owner = msg.sender;\n        feeWallet = _feeWallet;\n        totalSupply = _initialSupply * (10 ** decimals);\n        maxSupply = _maxSupply * (10 ** decimals);\n        balances[owner] = totalSupply;\n        transactionFeePercentage = 100;\n        paused = false;\n        locked = false;\n        priceFeed = AggregatorV3Interface(_priceFeed);\n    }\n\n    function balanceOf(address account) external view returns (uint256) {\n        return balances[account];\n    }\n\n    function transfer(address to, uint256 value) external whenNotPaused notBlacklisted(msg.sender) returns (bool) {\n        require(balances[msg.sender] >= value, \"Insufficient balance\");\n        uint256 fee = feeExempted[msg.sender] ? 0 : (value * transactionFeePercentage) / 10000;\n        balances[msg.sender] -= value;\n        balances[feeWallet] += fee;\n        balances[to] += (value - fee);\n        emit Transfer(msg.sender, feeWallet, fee);\n        emit Transfer(msg.sender, to, value - fee);\n        return true;\n    }\n\n    function approve(address spender, uint256 value) external returns (bool) {\n        allowed[msg.sender][spender] = value;\n        emit Approval(msg.sender, spender, value);\n        return true;\n    }\n\n    function transferFrom(address from, address to, uint256 value) external returns (bool) {\n        require(balances[from] >= value, \"Insufficient balance\");\n        require(allowed[from][msg.sender] >= value, \"Allowance exceeded\");\n        uint256 fee = (value * transactionFeePercentage) / 10000;\n        balances[from] -= value;\n        balances[feeWallet] += fee;\n        balances[to] += (value - fee);\n        allowed[from][msg.sender] -= value;\n        emit Transfer(from, feeWallet, fee);\n        emit Transfer(from, to, value - fee);\n        return true;\n    }\n\n    function allowance(address _owner, address spender) external view returns (uint256) {\n        return allowed[_owner][spender];\n    }\n\n    function mint(uint256 amount) external onlyOwner {\n        require(totalSupply + amount <= maxSupply, \"Exceeds max supply\");\n        balances[owner] += amount;\n        totalSupply += amount;\n        emit TokensMinted(owner, amount);\n    }\n\n    function burn(uint256 amount) external {\n        require(balances[msg.sender] >= amount, \"Insufficient balance\");\n        balances[msg.sender] -= amount;\n        totalSupply -= amount;\n        emit TokensBurned(msg.sender, amount);\n    }\n\n    function getLatestPrice() public view returns (int256) {\n        (, int256 price, , , ) = priceFeed.latestRoundData();\n        return price;\n    }\n\n    function getUSDValue(uint256 tokenAmount) public view returns (uint256) {\n        (, int price,,,) = priceFeed.latestRoundData();\n        require(price > 0, \"Invalid price from oracle\");\n        return uint256(price) * tokenAmount / (10 ** decimals);\n    }\n}\n",
  "sourcePath": "contracts/FlashTetherTRC20.sol",
  "compiler": {
    "name": "solc",
    "version": "0.8.0+commit.7c2e6412.Emscripten.clang"
  },
  "schemaVersion": "2.0.1",
  "updatedAt": "2025-03-24T10:27:49.053Z"
}