{
  "contractName": "MockPriceFeed",
  "abi": [
    {
      "inputs": [],
      "name": "latestRoundData",
      "outputs": [
        {
          "internalType": "uint80",
          "name": "roundId",
          "type": "uint80"
        },
        {
          "internalType": "int256",
          "name": "price",
          "type": "int256"
        },
        {
          "internalType": "uint256",
          "name": "startedAt",
          "type": "uint256"
        },
        {
          "internalType": "uint256",
          "name": "timeStamp",
          "type": "uint256"
        },
        {
          "internalType": "uint80",
          "name": "answeredInRound",
          "type": "uint80"
        }
      ],
      "stateMutability": "view",
      "type": "function"
    },
    {
      "inputs": [
        {
          "internalType": "int256",
          "name": "newPrice",
          "type": "int256"
        }
      ],
      "name": "setMockPrice",
      "outputs": [],
      "stateMutability": "nonpayable",
      "type": "function"
    }
  ],
  "bytecode": "0x60806040526305f5e10060005534801561001857600080fd5b50d3801561002557600080fd5b50d2801561003257600080fd5b506101f4806100426000396000f3fe608060405234801561001057600080fd5b50d3801561001d57600080fd5b50d2801561002a57600080fd5b50600436106100505760003560e01c80632c67cac014610055578063feaf968c14610071575b600080fd5b61006f600480360381019061006a91906100d4565b610093565b005b61007961009d565b60405161008a95949392919061012a565b60405180910390f35b8060008190555050565b6000806000806000600160005442426001945094509450945094509091929394565b6000813590506100ce816101a7565b92915050565b6000602082840312156100e657600080fd5b60006100f4848285016100bf565b91505092915050565b6101068161017d565b82525050565b61011581610187565b82525050565b61012481610191565b82525050565b600060a08201905061013f600083018861011b565b61014c60208301876100fd565b610159604083018661010c565b610166606083018561010c565b610173608083018461011b565b9695505050505050565b6000819050919050565b6000819050919050565b600069ffffffffffffffffffff82169050919050565b6101b08161017d565b81146101bb57600080fd5b5056fea2646970667358221220d070a8ad28b7b1c5abbbfa43a62fc48370246f97df9851f00301291a9619be4764736f6c63430008000033",
  "source": "// SPDX-License-Identifier: MIT\npragma solidity ^0.8.0;\n\ninterface AggregatorV3Interface {\n    function latestRoundData() external view returns (\n        uint80 roundId,\n        int price,\n        uint startedAt,\n        uint timeStamp,\n        uint80 answeredInRound\n    );\n}\n\ncontract MockPriceFeed is AggregatorV3Interface {\n    int private mockPrice = 100000000; // 1.00 USD\n\n    function latestRoundData()\n    public\n    view\n    override\n    returns (\n        uint80 roundId,\n        int price,\n        uint startedAt,\n        uint timeStamp,\n        uint80 answeredInRound\n    )\n    {\n        return (1, mockPrice, block.timestamp, block.timestamp, 1);\n    }\n\n    // Fiyatı değiştirmek için bir fonksiyon\n    function setMockPrice(int newPrice) external {\n        mockPrice = newPrice;\n    }\n}",
  "sourcePath": "contracts/MockPriceFeed.sol",
  "compiler": {
    "name": "solc",
    "version": "0.8.0+commit.7c2e6412.Emscripten.clang"
  },
  "schemaVersion": "2.0.1",
  "updatedAt": "2025-03-24T10:27:49.050Z"
}